{
  "abi": [
    {
      "inputs": [],
      "stateMutability": "nonpayable",
      "type": "constructor"
    },
    {
      "inputs": [
        {
          "internalType": "uint256",
          "name": "amount",
          "type": "uint256"
        },
        {
          "internalType": "bool",
          "name": "isBuy",
          "type": "bool"
        }
      ],
      "name": "echidna_crack",
      "outputs": [],
      "stateMutability": "nonpayable",
      "type": "function"
    }
  ],
  "bytecode": {
    "object": "0x608060405234801561001057600080fd5b5060405161001d906100a1565b60408082526010908201526f2a32b9ba2137b73234b733aa37b5b2b760811b60608201526080602082018190526003908201526215109560ea1b60a082015260c001604051809103906000f08015801561007b573d6000803e3d6000fd5b50600080546001600160a01b0319166001600160a01b03929092169190911790556100ae565b611f2f8061043083390190565b610373806100bd6000396000f3fe608060405234801561001057600080fd5b506004361061002b5760003560e01c8063c314ba5014610030575b600080fd5b61004361003e366004610291565b610045565b005b80156100b057600054604051636cb504a560e11b8152600481018490526001600160a01b039091169063d96a094a9084906024016000604051808303818588803b15801561009257600080fd5b505af11580156100a6573d6000803e3d6000fd5b5050505050610195565b600080546040516370a0823160e01b81523060048201526001600160a01b03909116906370a0823190602401602060405180830381865afa1580156100f9573d6000803e3d6000fd5b505050506040513d601f19601f8201168201806040525081019061011d91906102c6565b905061012981846102df565b610134906001610301565b6000546040516372424d9960e11b8152600481018390529194506001600160a01b03169063e4849b3290602401600060405180830381600087803b15801561017b57600080fd5b505af115801561018f573d6000803e3d6000fd5b50505050505b60008054906101000a90046001600160a01b03166001600160a01b031663b4a0b8c76040518163ffffffff1660e01b8152600401602060405180830381865afa1580156101e6573d6000803e3d6000fd5b505050506040513d601f19601f8201168201806040525081019061020a91906102c6565b60008054906101000a90046001600160a01b03166001600160a01b03166318160ddd6040518163ffffffff1660e01b8152600401602060405180830381865afa15801561025b573d6000803e3d6000fd5b505050506040513d601f19601f8201168201806040525081019061027f91906102c6565b111561028d5761028d610327565b5050565b600080604083850312156102a457600080fd5b82359150602083013580151581146102bb57600080fd5b809150509250929050565b6000602082840312156102d857600080fd5b5051919050565b6000826102fc57634e487b7160e01b600052601260045260246000fd5b500690565b6000821982111561032257634e487b7160e01b600052601160045260246000fd5b500190565b634e487b7160e01b600052600160045260246000fdfea26469706673582212205376b82aa56166be8afeed0e5aaa9dc0a28034348698fd6ed936d5e2b49fe5a064736f6c634300080f003360806040523480156200001157600080fd5b5060405162001f2f38038062001f2f833981016040819052620000349162000131565b818160036200004483826200022a565b5060046200005382826200022a565b5050600160055550620002f6915050565b634e487b7160e01b600052604160045260246000fd5b600082601f8301126200008c57600080fd5b81516001600160401b0380821115620000a957620000a962000064565b604051601f8301601f19908116603f01168101908282118183101715620000d457620000d462000064565b81604052838152602092508683858801011115620000f157600080fd5b600091505b83821015620001155785820183015181830184015290820190620000f6565b83821115620001275760008385830101525b9695505050505050565b600080604083850312156200014557600080fd5b82516001600160401b03808211156200015d57600080fd5b6200016b868387016200007a565b935060208501519150808211156200018257600080fd5b5062000191858286016200007a565b9150509250929050565b600181811c90821680620001b057607f821691505b602082108103620001d157634e487b7160e01b600052602260045260246000fd5b50919050565b601f8211156200022557600081815260208120601f850160051c81016020861015620002005750805b601f850160051c820191505b8181101562000221578281556001016200020c565b5050505b505050565b81516001600160401b0381111562000246576200024662000064565b6200025e816200025784546200019b565b84620001d7565b602080601f8311600181146200029657600084156200027d5750858301515b600019600386901b1c1916600185901b17855562000221565b600085815260208120601f198616915b82811015620002c757888601518255948401946001909101908401620002a6565b5085821015620002e65787850151600019600388901b60f8161c191681555b5050505050600190811b01905550565b611c2980620003066000396000f3fe60806040526004361061016a5760003560e01c806370a08231116100d1578063b9615a6e1161008a578063d8fbe99411610064578063d8fbe99414610530578063d96a094a14610550578063dd62ed3e14610565578063e4849b3214610585576101ac565b8063b9615a6e146104d0578063c1d34b89146104f0578063cae9ca5114610510576101ac565b806370a08231146103f357806388a7ca5c1461042957806395d89b4114610462578063a457c2d714610477578063a9059cbb14610497578063b4a0b8c7146104b7576101ac565b8063313ce56711610123578063313ce5671461033f5780633177029f1461035b578063395093511461037b5780634000aea01461039b578063465fa408146103bb57806354d0a685146103db576101ac565b806301ffc9a71461026957806306fdde031461029e578063095ea7b3146102c05780631296ee62146102e057806318160ddd1461030057806323b872dd1461031f576101ac565b366101ac5760405162461bcd60e51b815260206004820152600d60248201526c139bdd081cdd5c1c1bdc9d1959609a1b60448201526064015b60405180910390fd5b6000366060600034116101d15760405162461bcd60e51b81526004016101a3906116e7565b60006101dc346105a5565b905060006101ec84860186611713565b9050808210156102365760405162461bcd60e51b8152602060048201526015602482015274105b5bdd5b9d081a5cc81b9bdd0818dbdc9c9958dd605a1b60448201526064016101a3565b61023f82610636565b60408051602081018490520160405160208183030381529060405292505050915050805190602001f35b34801561027557600080fd5b50610289610284366004611742565b6106ff565b60405190151581526020015b60405180910390f35b3480156102aa57600080fd5b506102b3610724565b60405161029591906117ac565b3480156102cc57600080fd5b506102896102db3660046117db565b6107b6565b3480156102ec57600080fd5b506102896102fb3660046117db565b6107ce565b34801561030c57600080fd5b506002545b604051908152602001610295565b34801561032b57600080fd5b5061028961033a366004611805565b6107f1565b34801561034b57600080fd5b5060405160128152602001610295565b34801561036757600080fd5b506102896103763660046117db565b610815565b34801561038757600080fd5b506102896103963660046117db565b610831565b3480156103a757600080fd5b506102896103b63660046118e4565b610853565b3480156103c757600080fd5b506103116103d6366004611713565b610888565b3480156103e757600080fd5b50610311633b9aca0081565b3480156103ff57600080fd5b5061031161040e36600461193b565b6001600160a01b031660009081526020819052604090205490565b34801561043557600080fd5b50610449610444366004611956565b6108ae565b6040516001600160e01b03199091168152602001610295565b34801561046e57600080fd5b506102b3610906565b34801561048357600080fd5b506102896104923660046117db565b610915565b3480156104a357600080fd5b506102896104b23660046117db565b610990565b3480156104c357600080fd5b5061031164e8d4a5100081565b3480156104dc57600080fd5b506103116104eb366004611713565b6105a5565b3480156104fc57600080fd5b5061028961050b3660046119f1565b61099e565b34801561051c57600080fd5b5061028961052b3660046118e4565b6109dc565b34801561053c57600080fd5b5061028961054b366004611805565b610a4c565b61056361055e366004611713565b610636565b005b34801561057157600080fd5b50610311610580366004611a59565b610a69565b34801561059157600080fd5b506105636105a0366004611713565b610a94565b600073__$1fab406747547f63deabbec4bf80336282$__6318d8e8e0836105cb60025490565b6040516001600160e01b031960e085901b16815260048101929092526024820152604401602060405180830381865af415801561060c573d6000803e3d6000fd5b505050506040513d601f19601f820116820180604052508101906106309190611a8c565b92915050565b61063e610b49565b6000341161065e5760405162461bcd60e51b81526004016101a3906116e7565b6000811161069f5760405162461bcd60e51b815260206004820152600e60248201526d416d6f756e74206973207a65726f60901b60448201526064016101a3565b633b9aca008111156106e85760405162461bcd60e51b8152602060048201526012602482015271082dadeeadce840d2e640e8dede40d0d2ced60731b60448201526064016101a3565b6106f23382610ba2565b6106fc6001600555565b50565b60006001600160e01b03198216636168360f60e11b1480610630575061063082610c99565b60606003805461073390611aa5565b80601f016020809104026020016040519081016040528092919081815260200182805461075f90611aa5565b80156107ac5780601f10610781576101008083540402835291602001916107ac565b820191906000526020600020905b81548152906001019060200180831161078f57829003601f168201915b5050505050905090565b6000336107c4818585610cce565b5060019392505050565b60006107ea838360405180602001604052806000815250610853565b9392505050565b6000336107ff858285610df2565b61080a858585610e6c565b506001949350505050565b60006107ea8383604051806020016040528060008152506109dc565b6000336107c48185856108448383610a69565b61084e9190611af5565b610cce565b600061085f8484610990565b5061086c33858585611016565b6107c45760405162461bcd60e51b81526004016101a390611b0d565b600073__$1fab406747547f63deabbec4bf80336282$__63dce29da8836105cb60025490565b60003330146108f45760405162461bcd60e51b815260206004820152601260248201527127b7363c9030b63637bbb2b2103a37b5b2b760711b60448201526064016101a3565b50632229f29760e21b95945050505050565b60606004805461073390611aa5565b600033816109238286610a69565b9050838110156109835760405162461bcd60e51b815260206004820152602560248201527f45524332303a2064656372656173656420616c6c6f77616e63652062656c6f77604482015264207a65726f60d81b60648201526084016101a3565b61080a8286868403610cce565b6000336107c4818585610e6c565b60006109ab8585856107f1565b506109b885858585611016565b61080a5760405162461bcd60e51b81526004016101a390611b0d565b949350505050565b60006109e884846107b6565b506109f48484846111b2565b6107c45760405162461bcd60e51b8152602060048201526024808201527f455243313336333a207370656e6465722072657475726e65642077726f6e67206044820152636461746160e01b60648201526084016101a3565b60006109d48484846040518060200160405280600081525061099e565b6001600160a01b03918216600090815260016020908152604080832093909416825291909152205490565b610a9c610b49565b33600090815260208190526040902054811115610af15760405162461bcd60e51b8152602060048201526013602482015272125b9cdd59999a58da595b9d08185b5bdd5b9d606a1b60448201526064016101a3565b6000610afd3083610990565b905080610b3e5760405162461bcd60e51b815260206004820152600f60248201526e151c985b9cd9995c8819985a5b1959608a1b60448201526064016101a3565b506106fc6001600555565b600260055403610b9b5760405162461bcd60e51b815260206004820152601f60248201527f5265656e7472616e637947756172643a207265656e7472616e742063616c6c0060448201526064016101a3565b6002600555565b6000610bad82610888565b905080341015610bcf5760405162461bcd60e51b81526004016101a3906116e7565b610bd9838361133f565b64e8d4a51000610be860025490565b1115610c365760405162461bcd60e51b815260206004820152601c60248201527f4d617820737570706c79207468726573686f6c6420726561636865640000000060448201526064016101a3565b80341115610c5157610c5183610c4c8334611b52565b61140a565b826001600160a01b03167fe3d4187f6ca4248660cc0ac8b8056515bac4a8132be2eca31d6d0cc170722a7e83604051610c8c91815260200190565b60405180910390a2505050565b60006001600160e01b0319821663b0202a1160e01b148061063057506301ffc9a760e01b6001600160e01b0319831614610630565b6001600160a01b038316610d305760405162461bcd60e51b8152602060048201526024808201527f45524332303a20617070726f76652066726f6d20746865207a65726f206164646044820152637265737360e01b60648201526084016101a3565b6001600160a01b038216610d915760405162461bcd60e51b815260206004820152602260248201527f45524332303a20617070726f766520746f20746865207a65726f206164647265604482015261737360f01b60648201526084016101a3565b6001600160a01b0383811660008181526001602090815260408083209487168084529482529182902085905590518481527f8c5be1e5ebec7d5bd14f71427d1e84f3dd0314c0f7b2291e5b200ac8c7c3b925910160405180910390a3505050565b6000610dfe8484610a69565b90506000198114610e665781811015610e595760405162461bcd60e51b815260206004820152601d60248201527f45524332303a20696e73756666696369656e7420616c6c6f77616e636500000060448201526064016101a3565b610e668484848403610cce565b50505050565b6001600160a01b038316610ed05760405162461bcd60e51b815260206004820152602560248201527f45524332303a207472616e736665722066726f6d20746865207a65726f206164604482015264647265737360d81b60648201526084016101a3565b6001600160a01b038216610f325760405162461bcd60e51b815260206004820152602360248201527f45524332303a207472616e7366657220746f20746865207a65726f206164647260448201526265737360e81b60648201526084016101a3565b6001600160a01b03831660009081526020819052604090205481811015610faa5760405162461bcd60e51b815260206004820152602660248201527f45524332303a207472616e7366657220616d6f756e7420657863656564732062604482015265616c616e636560d01b60648201526084016101a3565b6001600160a01b03848116600081815260208181526040808320878703905593871680835291849020805487019055925185815290927fddf252ad1be2c89b69c2b068fc378daa952ba7f163c4a11628f55a4df523b3ef910160405180910390a3610e66848484611528565b60006001600160a01b0384163b6110815760405162461bcd60e51b815260206004820152602960248201527f455243313336333a207472616e7366657220746f206e6f6e20636f6e7472616360448201526874206164647265737360b81b60648201526084016101a3565b604051632229f29760e21b81526001600160a01b038516906388a7ca5c906110b3903390899088908890600401611b69565b6020604051808303816000875af19250505080156110ee575060408051601f3d908101601f191682019092526110eb91810190611ba6565b60015b611198573d80801561111c576040519150601f19603f3d011682016040523d82523d6000602084013e611121565b606091505b5080516000036111905760405162461bcd60e51b815260206004820152603460248201527f455243313336333a207472616e7366657220746f206e6f6e20455243313336336044820152732932b1b2b4bb32b91034b6b83632b6b2b73a32b960611b60648201526084016101a3565b805181602001fd5b6001600160e01b031916632229f29760e21b1490506109d4565b60006001600160a01b0384163b61121b5760405162461bcd60e51b815260206004820152602760248201527f455243313336333a20617070726f76652061206e6f6e20636f6e7472616374206044820152666164647265737360c81b60648201526084016101a3565b6040516307b04a2d60e41b81526001600160a01b03851690637b04a2d09061124b90339087908790600401611bc3565b6020604051808303816000875af1925050508015611286575060408051601f3d908101601f1916820190925261128391810190611ba6565b60015b611325573d8080156112b4576040519150601f19603f3d011682016040523d82523d6000602084013e6112b9565b606091505b5080516000036111905760405162461bcd60e51b815260206004820152603160248201527f455243313336333a20617070726f76652061206e6f6e2045524331333633537060448201527032b73232b91034b6b83632b6b2b73a32b960791b60648201526084016101a3565b6001600160e01b0319166307b04a2d60e41b1490506107ea565b6001600160a01b0382166113955760405162461bcd60e51b815260206004820152601f60248201527f45524332303a206d696e7420746f20746865207a65726f20616464726573730060448201526064016101a3565b80600260008282546113a79190611af5565b90915550506001600160a01b038216600081815260208181526040808320805486019055518481527fddf252ad1be2c89b69c2b068fc378daa952ba7f163c4a11628f55a4df523b3ef910160405180910390a361140660008383611528565b5050565b8047101561145a5760405162461bcd60e51b815260206004820152601d60248201527f416464726573733a20696e73756666696369656e742062616c616e636500000060448201526064016101a3565b6000826001600160a01b03168260405160006040518083038185875af1925050503d80600081146114a7576040519150601f19603f3d011682016040523d82523d6000602084013e6114ac565b606091505b50509050806115235760405162461bcd60e51b815260206004820152603a60248201527f416464726573733a20756e61626c6520746f2073656e642076616c75652c207260448201527f6563697069656e74206d6179206861766520726576657274656400000000000060648201526084016101a3565b505050565b6001600160a01b0383161580159061154857506001600160a01b03821630145b1561152357611523838261155c30826115ae565b600061156782610888565b9050611573838261140a565b826001600160a01b03167f5e5e995ce3133561afceaa51a9a154d5db228cd7525d34df5185582c18d3df0983604051610c8c91815260200190565b6001600160a01b03821661160e5760405162461bcd60e51b815260206004820152602160248201527f45524332303a206275726e2066726f6d20746865207a65726f206164647265736044820152607360f81b60648201526084016101a3565b6001600160a01b038216600090815260208190526040902054818110156116825760405162461bcd60e51b815260206004820152602260248201527f45524332303a206275726e20616d6f756e7420657863656564732062616c616e604482015261636560f01b60648201526084016101a3565b6001600160a01b0383166000818152602081815260408083208686039055600280548790039055518581529192917fddf252ad1be2c89b69c2b068fc378daa952ba7f163c4a11628f55a4df523b3ef910160405180910390a361152383600084611528565b602080825260129082015271496e73756666696369656e742066756e647360701b604082015260600190565b60006020828403121561172557600080fd5b5035919050565b6001600160e01b0319811681146106fc57600080fd5b60006020828403121561175457600080fd5b81356107ea8161172c565b6000815180845260005b8181101561178557602081850181015186830182015201611769565b81811115611797576000602083870101525b50601f01601f19169290920160200192915050565b6020815260006107ea602083018461175f565b80356001600160a01b03811681146117d657600080fd5b919050565b600080604083850312156117ee57600080fd5b6117f7836117bf565b946020939093013593505050565b60008060006060848603121561181a57600080fd5b611823846117bf565b9250611831602085016117bf565b9150604084013590509250925092565b634e487b7160e01b600052604160045260246000fd5b600082601f83011261186857600080fd5b813567ffffffffffffffff8082111561188357611883611841565b604051601f8301601f19908116603f011681019082821181831017156118ab576118ab611841565b816040528381528660208588010111156118c457600080fd5b836020870160208301376000602085830101528094505050505092915050565b6000806000606084860312156118f957600080fd5b611902846117bf565b925060208401359150604084013567ffffffffffffffff81111561192557600080fd5b61193186828701611857565b9150509250925092565b60006020828403121561194d57600080fd5b6107ea826117bf565b60008060008060006080868803121561196e57600080fd5b611977866117bf565b9450611985602087016117bf565b935060408601359250606086013567ffffffffffffffff808211156119a957600080fd5b818801915088601f8301126119bd57600080fd5b8135818111156119cc57600080fd5b8960208285010111156119de57600080fd5b9699959850939650602001949392505050565b60008060008060808587031215611a0757600080fd5b611a10856117bf565b9350611a1e602086016117bf565b925060408501359150606085013567ffffffffffffffff811115611a4157600080fd5b611a4d87828801611857565b91505092959194509250565b60008060408385031215611a6c57600080fd5b611a75836117bf565b9150611a83602084016117bf565b90509250929050565b600060208284031215611a9e57600080fd5b5051919050565b600181811c90821680611ab957607f821691505b602082108103611ad957634e487b7160e01b600052602260045260246000fd5b50919050565b634e487b7160e01b600052601160045260246000fd5b60008219821115611b0857611b08611adf565b500190565b60208082526025908201527f455243313336333a2072656365697665722072657475726e65642077726f6e67604082015264206461746160d81b606082015260800190565b600082821015611b6457611b64611adf565b500390565b6001600160a01b0385811682528416602082015260408101839052608060608201819052600090611b9c9083018461175f565b9695505050505050565b600060208284031215611bb857600080fd5b81516107ea8161172c565b60018060a01b0384168152826020820152606060408201526000611bea606083018461175f565b9594505050505056fea26469706673582212209c6c21816676a9a825b521dae9d85e70809592e11b08c3c7c7d7d1ad3ddb305264736f6c634300080f0033",
    "linkReferences": {
      "src/utils/BondingCurve.sol": {
        "BondingCurve": [
          {
            "start": 3295,
            "length": 20
          },
          {
            "start": 4034,
            "length": 20
          }
        ]
      }
    }
  },
  "methodIdentifiers": {
    "echidna_crack(uint256,bool)": "c314ba50"
  },
  "id": 15
}