{
  "abi": [
    {
      "inputs": [
        {
          "internalType": "uint256",
          "name": "amount",
          "type": "uint256"
        },
        {
          "internalType": "uint256",
          "name": "supply",
          "type": "uint256"
        }
      ],
      "name": "calculatePriceForTokens",
      "outputs": [
        {
          "internalType": "uint256",
          "name": "",
          "type": "uint256"
        }
      ],
      "stateMutability": "pure",
      "type": "function"
    },
    {
      "inputs": [
        {
          "internalType": "uint256",
          "name": "amount",
          "type": "uint256"
        },
        {
          "internalType": "uint256",
          "name": "supply",
          "type": "uint256"
        }
      ],
      "name": "calculateTokensForPrice",
      "outputs": [
        {
          "internalType": "uint256",
          "name": "",
          "type": "uint256"
        }
      ],
      "stateMutability": "pure",
      "type": "function"
    }
  ],
  "bytecode": {
    "object": "0x61040e61003a600b82828239805160001a60731461002d57634e487b7160e01b600052600060045260246000fd5b30600052607381538281f3fe73000000000000000000000000000000000000000030146080604052600436106100405760003560e01c806318d8e8e014610045578063dce29da81461006a575b600080fd5b610058610053366004610231565b61007d565b60405190815260200160405180910390f35b610058610078366004610231565b610135565b6000806100c16003610090856001610269565b61009a9190610365565b6100a7620f424087610374565b6100b2906003610396565b6100bc9190610269565b610199565b90506100ce836001610269565b8110156101155760405162461bcd60e51b8152602060048201526011602482015270416d6f756e7420697320746f6f206c6f7760781b604482015260640160405180910390fd5b600161012184836103b5565b61012b91906103b5565b9150505b92915050565b6000620f4240600380610149856001610269565b6101539190610365565b600361015f8787610269565b61016a906001610269565b6101749190610365565b61017e91906103b5565b6101889190610374565b6101929190610396565b9392505050565b600061012f82600383826000036101b25750600061012f565b6000835b8082101561021d57600060026101cc8385610269565b6101d69190610374565b905060006101e486836103cc565b90508681036101f85750925061012f915050565b868110156102125761020b826001610269565b9350610216565b8192505b50506101b6565b6102286001836103b5565b95945050505050565b6000806040838503121561024457600080fd5b50508035926020909101359150565b634e487b7160e01b600052601160045260246000fd5b6000821982111561027c5761027c610253565b500190565b600181815b808511156102bc5781600019048211156102a2576102a2610253565b808516156102af57918102915b93841c9390800290610286565b509250929050565b6000826102d35750600161012f565b816102e05750600061012f565b81600181146102f657600281146103005761031c565b600191505061012f565b60ff84111561031157610311610253565b50506001821b61012f565b5060208310610133831016604e8410600b841016171561033f575081810a61012f565b6103498383610281565b806000190482111561035d5761035d610253565b029392505050565b600061019260ff8416836102c4565b60008261039157634e487b7160e01b600052601260045260246000fd5b500490565b60008160001904831182151516156103b0576103b0610253565b500290565b6000828210156103c7576103c7610253565b500390565b600061019283836102c456fea264697066735822122090a7c28d10477f433f7c9644b0fe59583e70eb6c84ce00996ead0838fc47851464736f6c634300080f0033",
    "linkReferences": {}
  },
  "methodIdentifiers": {
    "calculatePriceForTokens(uint256,uint256)": "dce29da8",
    "calculateTokensForPrice(uint256,uint256)": "18d8e8e0"
  },
  "id": 15
}